:020000040800F2
:100000000028002039160008D9140008DF14000861
:10001000E5140008EB140008F114000800000000CB
:10002000000000000000000000000000F7140008BD
:1000300003150008000000000F1500081B1500083C
:100040008116000881160008811600088116000834
:100050008116000881160008811600088116000824
:100060008116000881160008811600088116000814
:100070008116000881160008811600088116000804
:1000800081160008811600088116000881160008F4
:1000900081160008811600088116000881160008E4
:1000A00081160008811600088116000881160008D4
:1000B00029150008811600080000000081160008BC
:1000C00081160008000000000000000081160008F2
:1000D00000000000811600088116000800000000E2
:1000E0008116000881160008811600080000000033
:1000F0000000000000000000000000000000000000
:0C01000000000000000000005FF808F1A3
:10010C0010B5054C237833B9044B13B10448AFF345
:10011C0000800123237010BD3C0000200000000073
:10012C00C82C000808B5034B1BB103490348AFF3B7
:10013C00008008BD0000000040000020C82C000812
:10014C0080B400AF0A4B02221A600A4B03221A60D9
:10015C00094B05221A60084B1B68084A1360054BB3
:10016C001B68074A136000BFBD4680BC704700BFC8
:10017C007C000020880000208400002080000020EB
:10018C007800002080B500AF944B1B68042B00F264
:10019C00788101A252F823F0B9010008D3010008BC
:1001AC00550200080B030008BF0300088C4B022209
:1001BC001A6000F0FBFF4FF4FA7001F0DBF9874B8B
:1001CC0001221A6066E100F065FB864B1B68012B6F
:1001DC001ED14FF4FA7001F0CDF9814B1B68022B44
:1001EC000FD100F0F7FF804B1B68013B7E4A136078
:1001FC007E4B1B68013B7D4A1360794B00221A60D1
:10020C0001E000F0D3FF764B1B680133744A136096
:10021C00002000F071FA0346012B40F034814FF4BA
:10022C00FA7001F0A7F9724B1B68724A13606F4B9E
:10023C0002221A606E4B1B686B4A1360674B0222DA
:10024C001A6000F0A7F91EE1664B1B68012B16D152
:10025C004FF4FA7001F08EF900F02AF9604B1B682C
:10026C00022B05D100F0B6FF5D4B00221A6001E0B5
:10027C0000F09CFF5A4B1B680133594A1360002055
:10028C0000F03AFA0346012B13D14FF4FA7001F047
:10029C0071F9594B1B68574A1360544B03221A606F
:1002AC00554B1B68504A13604C4B03221A6000F0EC
:1002BC0071F9012000F020FA0346012B0FD14D4BB0
:1002CC001B68632B02DD4B4B01221A60494B1B68E8
:1002DC000133484A1360474B1B68434A13600220A2
:1002EC0000F00AFA0346012B40F0CF80414B1B680B
:1002FC003F4A13603E4B1B683B4A1360C5E0394BC9
:10030C001B68012B16D14FF4FA7001F033F900F091
:10031C00F5F8334B1B68022B05D100F05BFF304B1B
:10032C0000221A6001E000F041FF2D4B1B680133E5
:10033C002B4A1360002000F0DFF90346012B13D188
:10034C004FF4FA7001F016F92C4B1B68294A136014
:10035C00264B04221A60294B1B68234A13601F4B3F
:10036C0004221A6000F016F9012000F0C5F90346CA
:10037C00012B0FD11F4B1B68632B02DD1D4B012280
:10038C001A601C4B1B6801331A4A1360194B1B680B
:10039C00154A1360022000F0AFF90346012B76D109
:1003AC00144B1B68144A1360134B1B680E4A1360E2
:1003BC006DE00C4B1B68012B29D14FF4FA7001F046
:1003CC00D9F800F0C1F8064B1B68022B18D100F0CD
:1003DC0001FF034B00221A6014E000BF58000020FC
:1003EC009000002068000020780000208000002091
:1003FC00840000208C0000207C000020880000205D
:10040C0000F0D4FE244B1B680133234A13600020F8
:10041C0000F072F90346012B0ED1204B00221A601A
:10042C001D4B02221A6000F0C1FE4FF4FA7001F06D
:10043C00A1F81B4B01221A60012000F05DF9034664
:10044C00012B0FD1174B1B68632B02DD154B0122BF
:10045C001A60144B1B680133124A1360114B1B6852
:10046C00114A1360022000F047F90346012B10D10A
:10047C000C4B1B680D4A13600C4B1B680A4A13602B
:10048C0007E000BF06E000BF04E000BF02E000BFD1
:10049C0000E000BF00BF80BD900000205C00002089
:1004AC00580000208C0000207800002088000020DC
:1004BC0080B500AF2021104801F0F7FB4FF480719C
:1004CC000D4801F0F2FB012240210B4801F0D5FB55
:1004DC0001228021084801F0D0FB01224FF4007169
:1004EC00054801F0CAFB01224FF48061024801F07B
:1004FC00C4FB00BF80BD00BF0008014080B500AF49
:10050C004021104801F0D1FB4FF400710D4801F06F
:10051C00CCFB012220210B4801F0AFFB01228021F2
:10052C00084801F0AAFB01224FF48071054801F044
:10053C00A4FB01224FF48061024801F09EFB00BF36
:10054C0080BD00BF0008014080B500AF802110487D
:10055C0001F0ABFB4FF480610D4801F0A6FB0122CA
:10056C0020210B4801F089FB01224021084801F0B1
:10057C0084FB01224FF48071054801F07EFB0122BF
:10058C004FF40071024801F078FB00BF80BD00BF42
:10059C000008014080B500AF01222021104801F075
:1005AC006CFB012240210E4801F067FB01228021E7
:1005BC000B4801F062FB01224FF48071084801F0F6
:1005CC005CFB01224FF40071054801F056FB01223F
:1005DC004FF48061024801F050FB00BF80BD00BFAA
:1005EC000008014080B500AF00222021074801F02F
:1005FC0044FB01224021054801F03FFB01228021F0
:10060C00024801F03AFB00BF80BD00BF000801406A
:10061C0080B500AF01222021074801F02EFB0022FB
:10062C004021054801F029FB01228021024801F0FC
:10063C0024FB00BF80BD00BF0008014080B500AFA7
:10064C0001222021074801F018FB01224021054816
:10065C0001F013FB00228021024801F00EFB00BFC9
:10066C0080BD00BF0008014080B500AF00224FF4F0
:10067C008071084801F001FB01224FF4007105481C
:10068C0001F0FBFA01224FF48061024801F0F5FA07
:10069C0000BF80BD0008014080B500AF01224FF4BF
:1006AC008071084801F0E9FA00224FF40071054806
:1006BC0001F0E3FA01224FF48061024801F0DDFA07
:1006CC0000BF80BD0008014080B500AF01224FF48F
:1006DC008071084801F0D1FA01224FF400710548ED
:1006EC0001F0CBFA00224FF48061024801F0C5FA08
:1006FC0000BF80BD0008014080B483B000AF7860BB
:10070C00094A7B6852F82330012B06D1064A7B68D4
:10071C00002142F82310012300E0002318460C3777
:10072C00BD4680BC704700BFA000002080B483B0E1
:10073C0000AF7860044A7B68012142F8231000BFA7
:10074C000C37BD4680BC7047A000002080B582B03D
:10075C0000AF00237B6087E0484A7B6852F8232077
:10076C0047497B6841F82320464A7B6852F823208E
:10077C0042497B6841F823207B68002B0BD14FF456
:10078C000051414801F062FA034619463D4A7B6824
:10079C0042F823101CE07B68012B0BD14FF48041F5
:1007AC00394801F053FA03461946364A7B6842F839
:1007BC0023100DE07B68022B0AD14FF40041324824
:1007CC0001F044FA034619462E4A7B6842F823107E
:1007DC002B4A7B6852F8232028497B6851F8233038
:1007EC009A423ED1254A7B6852F8232025497B68E2
:1007FC0051F823309A4234D1224A7B6852F8232094
:10080C0022497B6851F823309A4216D01D4A7B68E6
:10081C0052F823201D497B6841F82320194A7B6834
:10082C0052F82330002B1CD1194A7B68C82142F89E
:10083C0023107868FFF77AFF13E0154A7B6852F8AB
:10084C0023305A1E12497B6841F82320104A7B68DA
:10085C0052F82330002B04D10C4A7B68012142F85A
:10086C0023107B6801337B607B68022B7FF774AFAE
:10087C0000BF00BF0837BD4680BD00BF1800002078
:10088C000C00002000000020000801402400002083
:10089C009400002080B500AF4E4B1B68042B00F277
:1008AC008E8001A252F823F0C9080008FB0800084A
:1008BC00290900086309000891090008464B1B68C8
:1008CC004FF47A7202FB03F3184600F037FE434BE9
:1008DC001B68434A1360404B1B68424A1360FFF786
:1008EC0081FEFFF7F1FE3B4B01221A6070E03E4B9C
:1008FC001B68012B65D13D4B1B684FF47A7202FBD0
:10090C0003F3184600F01AFEFFF7C6FE374B1B68C0
:10091C00344A13602F4B02221A6052E0324B1B6890
:10092C00012B50D12C4B1B684FF47A7202FB03F352
:10093C00184600F003FEFFF781FEFFF795FE264BED
:10094C001B68274A1360254B1B68264A1360214BF2
:10095C0003221A6037E0244B1B68012B35D1234B43
:10096C001B684FF47A7202FB03F3184600F0E6FDA5
:10097C00FFF74EFE1D4B1B68194A1360154B0422E2
:10098C001A6022E0184B1B68012B20D1124B1B68FC
:10099C004FF47A7202FB03F3184600F0CFFDFFF719
:1009AC0021FEFFF791FE0D4B1B680D4A13600A4B9D
:1009BC001B680C4A1360074B01221A6007E000BF4A
:1009CC0006E000BF04E000BF02E000BF00E000BF93
:1009DC0000BF80BD5C000020880000208400002047
:1009EC008000002078000020600000207C000020A7
:1009FC0080B582B000AF78607B68002B22D10022DA
:100A0C000121BD4801F039F900220221BA4801F058
:100A1C0034F900220421B84801F02FF900220821F2
:100A2C00B54801F02AF900221021B34801F025F94C
:100A3C0000222021B04801F020F901224021AE48CB
:100A4C0001F01BF97B68012B22D101220121AA485C
:100A5C0001F013F900220221A74801F00EF900223F
:100A6C000421A54801F009F901220821A24801F04E
:100A7C0004F901221021A04801F0FFF801222021E5
:100A8C009D4801F0FAF8012240219B4801F0F5F84D
:100A9C007B68022B22D100220121974801F0EDF84E
:100AAC0000220221944801F0E8F801220421924826
:100ABC0001F0E3F8002208218F4801F0DEF8002253
:100ACC0010218D4801F0D9F8012220218A4801F02B
:100ADC00D4F800224021884801F0CFF87B68032B22
:100AEC0022D100220121844801F0C7F80022022102
:100AFC00814801F0C2F8002204217F4801F0BDF8C2
:100B0C00002208217C4801F0B8F8012210217A4813
:100B1C0001F0B3F801222021774801F0AEF8002251
:100B2C004021754801F0A9F87B68042B22D10122E1
:100B3C000121714801F0A1F8002202216E4801F058
:100B4C009CF8002204216C4801F097F8012208213E
:100B5C00694801F092F801221021674801F08DF8E4
:100B6C0000222021644801F088F8002240216248CC
:100B7C0001F083F87B68052B22D1002201215E480D
:100B8C0001F07BF8012202215B4801F076F800228B
:100B9C000421594801F071F800220821564801F04F
:100BAC006CF801221021544801F067F80022202132
:100BBC00514801F062F8002240214F4801F05DF8E5
:100BCC007B68062B22D1002201214B4801F055F8FD
:100BDC0001220221484801F050F800220421464825
:100BEC0001F04BF800220821434801F046F800229E
:100BFC001021414801F041F8002220213E4801F02B
:100C0C003CF8002240213C4801F037F87B68072B68
:100C1C0022D100220121384801F02FF800220221B4
:100C2C00354801F02AF800220421334801F025F858
:100C3C0001220821304801F020F8012210212E4811
:100C4C0001F01BF8012220212B4801F016F801229B
:100C5C004021294801F011F87B68082B22D1002291
:100C6C000121254801F009F800220221224801F057
:100C7C0004F800220421204800F0FFFF0022082184
:100C8C001D4800F0FAFF002210211B4800F0F5FF70
:100C9C0000222021184800F0F0FF002240211648C5
:100CAC0000F0EBFF7B68092B22D1002201211248B6
:100CBC0000F0E3FF002202210F4800F0DEFF0022CB
:100CCC0004210D4800F0D9FF002208210A4800F049
:100CDC00D4FF01221021084800F0CFFF0022202170
:100CEC00054800F0CAFF00224021034800F0C5FF70
:100CFC0000BF0837BD4680BD000C014080B582B0F6
:100D0C0000AF78607B68002B29D100224FF4007172
:100D1C00D34800F0B2FF00224FF48061D04800F0BD
:100D2C00ACFF00224FF40061CD4800F0A6FF00227A
:100D3C004FF48051CA4800F0A0FF00224FF400513C
:100D4C00C74800F09AFF00224FF48041C44800F0DD
:100D5C0094FF01224FF40041C14800F08EFF7B68E4
:100D6C00012B29D101224FF40071BD4800F085FF01
:100D7C0000224FF48061BA4800F07FFF00224FF44C
:100D8C000061B74800F079FF01224FF48051B4485C
:100D9C0000F073FF01224FF40051B14800F06DFFD9
:100DAC0001224FF48041AE4800F067FF01224FF45E
:100DBC000041AB4800F061FF7B68022B29D1002277
:100DCC004FF40071A64800F058FF00224FF48061E8
:100DDC00A34800F052FF01224FF40061A04800F03C
:100DEC004CFF00224FF480519D4800F046FF00223A
:100DFC004FF400519A4800F040FF01224FF480411B
:100E0C00974800F03AFF00224FF40041944800F05C
:100E1C0034FF7B68032B29D100224FF400719048DA
:100E2C0000F02BFF00224FF480618D4800F025FF6D
:100E3C0000224FF400618A4800F01FFF00224FF49B
:100E4C008051874800F019FF01224FF4005184486B
:100E5C0000F013FF01224FF48041814800F00DFF98
:100E6C0000224FF400417E4800F007FF7B68042B02
:100E7C0029D101224FF40071794800F0FEFE0022C6
:100E8C004FF48061764800F0F8FE00224FF40061C8
:100E9C00734800F0F2FE01224FF48051704800F0CC
:100EAC00ECFE01224FF400516D4800F0E6FE0022EA
:100EBC004FF480416A4800F0E0FE00224FF40041FC
:100ECC00674800F0DAFE7B68052B29D100224FF42D
:100EDC000071634800F0D1FE01224FF4806160483C
:100EEC0000F0CBFE00224FF400615D4800F0C5FE1F
:100EFC0000224FF480515A4800F0BFFE01224FF4FB
:100F0C000051574800F0B9FE00224FF4804154487C
:100F1C0000F0B3FE00224FF40041514800F0ADFE4A
:100F2C007B68062B29D100224FF400714C4800F04D
:100F3C00A4FE01224FF48061494800F09EFE00227D
:100F4C004FF40061464800F098FE00224FF48051A7
:100F5C00434800F092FE00224FF40051404800F04C
:100F6C008CFE00224FF480413D4800F086FE0022AA
:100F7C004FF400413A4800F080FE7B68072B29D1E2
:100F8C0000224FF40071364800F077FE00224FF437
:100F9C008061334800F071FE00224FF4006130484C
:100FAC0000F06BFE01224FF480512D4800F065FEDD
:100FBC0001224FF400512A4800F05FFE01224FF449
:100FCC008041274800F059FE01224FF4004124488B
:100FDC0000F053FE7B68082B29D100224FF40071DE
:100FEC001F4800F04AFE00224FF480611C4800F0BC
:100FFC0044FE00224FF40061194800F03EFE00222E
:10100C004FF48051164800F038FE00224FF4005186
:10101C00134800F032FE00224FF48041104800F0DB
:10102C002CFE00224FF400410D4800F026FE7B6898
:10103C00092B2CD100224FF40071094800F01DFE41
:10104C0000224FF48061064800F017FE00224FF496
:10105C000061034800F011FE00224FF4805101E0C2
:10106C00000C01400C4800F008FE01224FF4005126
:10107C00094800F002FE00224FF48041064800F0BF
:10108C00FCFD00224FF40041034800F0F6FD00BFC8
:10109C000837BD4680BD00BF000C014080B582B052
:1010AC0000AF786039607B686F2B03D07B68702B46
:1010BC0015D02EE000220221184800F0DEFD01229E
:1010CC000421164800F0D9FD3B68154A82FB031237
:1010DC009210DB17D31A1846FFF78AFC19E001228D
:1010EC0002210E4800F0C9FD002204210B4800F03B
:1010FC00C4FD3A680A4B83FB02139910D317C91A23
:10110C000B469B000B445B00D11A0846FFF770FCA2
:10111C0000BF00BF0837BD4680BD00BF00080140BE
:10112C006766666680B582B000AF786039607B68B0
:10113C00DE2B03D07B68DF2B15D02EE0002208219C
:10114C00184800F09AFD01221021164800F095FD78
:10115C003B68154A82FB03129210DB17D31A184610
:10116C00FFF7CCFD19E0012208210E4800F085FDA7
:10117C00002210210B4800F080FD3A680A4B83FBDB
:10118C0002139910D317C91A0B469B000B445B0032
:10119C00D11A0846FFF7B2FD00BF00BF0837BD46A5
:1011AC0080BD00BF000801406766666680B500AF71
:1011BC00064B1B6819466F20FFF770FF044B1B682A
:1011CC001946DE20FFF7AEFF00BF80BD8000002077
:1011DC007800002080B500AF064B1B6819467020C4
:1011EC00FFF75CFF044B1B681946DF20FFF79AFFE3
:1011FC0000BF80BD800000207800002080B500AFCB
:10120C0000F03AFA00F00EF800F094F800F046F80E
:10121C00034801F08FF9FEF793FFFEF7B3FFFCE7ED
:10122C00AC00002080B590B000AF07F11803282265
:10123C000021184601F03AFD3B1D00221A605A604D
:10124C009A60DA601A610223BB610123BB6210232E
:10125C00FB6200237B6307F11803184600F03EFD88
:10126C000346002B01D000F0D5F80F237B60002340
:10127C00BB600023FB6000233B6100237B613B1DB3
:10128C000021184600F0AAFF0346002B01D000F005
:10129C00C1F800BF4037BD4680BD000080B586B0A8
:1012AC0000AF07F1080300221A605A609A60DA60F6
:1012BC003B4600221A605A601D4B4FF080421A6068
:1012CC001B4B41F63F725A60194B00229A60184B27
:1012DC000922DA60164B00221A61154B00229A6122
:1012EC00134801F0D7F80346002B01D000F092F818
:1012FC004FF48053BB6007F1080319460C4801F00A
:10130C006DFA0346002B01D000F084F800233B60FB
:10131C0000237B603B461946054801F039FC034627
:10132C00002B01D000F076F800BF1837BD4680BD09
:10133C00AC00002080B586B000AF07F10803002296
:10134C001A605A609A60DA60294B9B69284A43F00C
:10135C0004039361264B9B6903F004037B607B6859
:10136C00234B9B69224A43F008039361204B9B69F2
:10137C0003F008033B603B68002240F2FE711D48FD
:10138C0000F07BFC00224FF67F611B4800F075FCDF
:10139C0040F2FE73BB600123FB6000233B61022320
:1013AC007B6107F108031946124800F0D5FA4FF695
:1013BC007F63BB600123FB6000233B6102237B61E5
:1013CC0007F1080319460C4800F0C6FA4FF46043C5
:1013DC00BB600023FB6000233B6107F10803194647
:1013EC00044800F0B9FA00BF1837BD4680BD00BFF5
:1013FC000010024000080140000C014080B582B092
:10140C0000AF786000F0D2F8FFF7A0F900BF083702
:10141C00BD4680BD80B400AF72B600BFFEE70000D1
:10142C0080B485B000AF154B9B69144A43F001039F
:10143C009361124B9B6903F00103BB60BB680F4BBC
:10144C00DB690E4A43F08053D3610C4BDB6903F02C
:10145C0080537B607B680A4B5B68FB60FB6823F006
:10146C00E063FB60FB6843F08063FB60044AFB684D
:10147C00536000BF1437BD4680BC7047001002405B
:10148C000000014080B584B000AF78607B681B68B9
:10149C00B3F1804F13D10C4BDB690B4A43F00103C2
:1014AC00D361094BDB6903F00103FB60FB6800228D
:1014BC0000211C2000F019FA1C2000F032FA00BFA9
:1014CC001037BD4680BD00BF0010024080B400AF95
:1014DC00FEE780B400AFFEE780B400AFFEE780B457
:1014EC0000AFFEE780B400AFFEE780B400AF00BFF2
:1014FC00BD4680BC704780B400AF00BFBD4680BC09
:10150C00704780B400AF00BFBD4680BC704780B54B
:10151C0000AF00F0F7F800BF80BD000080B500AF51
:10152C00024801F053F800BF80BD00BFAC000020A2
:10153C0080B400AF00BFBD4680BC704780B483B0A0
:10154C0000AF78607B68084A82FB03129210DB17AD
:10155C00D31A064A1360064B00221A6000BF0C37E0
:10156C00BD4680BC704700BF67666666640000209D
:10157C006000002080B483B000AF78607B68084ABC
:10158C0082FB03129210DB17D31A064A1360064B28
:10159C0000221A6000BF0C37BD4680BC704700BFEC
:1015AC00676666666C0000206800002080B400AF9F
:1015BC00184B1B68002B05DD164B1B68013B154AAD
:1015CC00136004E0144B1B680133134A1360134B74
:1015DC001B68002B05DD114B1B68013B0F4A136088
:1015EC0004E00F4B1B6801330D4A13600D4B1B6855
:1015FC00002B05DD0B4B1B68013B0A4A136004E012
:10160C00094B1B680133084A136000BFBD4680BC00
:10161C00704700BF64000020600000206C000020B8
:10162C00680000207400002070000020FFF780FF8D
:10163C000B480C490C4A002302E0D458C450043324
:10164C00C4188C42F9D3094A094C002301E01360F9
:10165C000432A242FBD301F005FBFFF7CFFD70472C
:10166C00000000203C0000200C2D00083C00002055
:10167C00F8000020FEE7000080B500AF084B1B68A7
:10168C00074A43F010031360032000F023F90F20E6
:10169C0000F008F8FFF7C4FE0023184680BD00BF19
:1016AC000020024080B582B000AF7860124B1A68FF
:1016BC00124B1B7819464FF47A73B3FBF1F3B2FB60
:1016CC00F3F3184600F03BF90346002B01D001233D
:1016DC000EE07B680F2B0AD8002279684FF0FF30A0
:1016EC0000F003F9064A7B681360002300E0012335
:1016FC0018460837BD4680BD300000203800002059
:10170C003400002080B400AF054B1B781A46054B03
:10171C001B681344034A136000BFBD4680BC70476E
:10172C0038000020F400002080B400AF024B1B688E
:10173C001846BD4680BC7047F400002080B485B0CC
:10174C0000AF78607B6803F00703FB600C4BDB6831
:10175C00BB60BA684FF6FF031340BB60FB681A020C
:10176C00BB68134343F0BF6343F40033BB60044ACC
:10177C00BB68D36000BF1437BD4680BC704700BF48
:10178C0000ED00E080B400AF044BDB681B0A03F0F3
:10179C0007031846BD4680BC704700BF00ED00E053
:1017AC0080B483B000AF0346FB7197F90730002B70
:1017BC000BDBFB7903F01F02064997F907305B0935
:1017CC00012000FA02F241F8232000BF0C37BD467D
:1017DC0080BC704700E100E080B483B000AF0346EA
:1017EC003960FB7197F90730002B0ADB3B68DAB2E2
:1017FC000C4997F907301201D2B20B4483F800233D
:10180C000AE03B68DAB20849FB7903F00F03043BAA
:10181C001201D2B20B441A7600BF0C37BD4680BC05
:10182C00704700BF00E100E000ED00E080B489B03B
:10183C0000AFF860B9607A60FB6803F00703FB61E6
:10184C00FB69C3F10703042B28BF0423BB61FB69AD
:10185C000433062B02D9FB69033B00E000237B61B8
:10186C004FF0FF32BB6902FA03F3DA43BB681A404C
:10187C007B699A404FF0FF317B6901FA03F3D9433E
:10188C007B680B40134318462437BD4680BC704719
:10189C0080B582B000AF78607B68013BB3F1807F8C
:1018AC0001D301230FE00A4A7B68013B53600F21EF
:1018BC004FF0FF30FFF790FF054B00229A60044B6E
:1018CC0007221A60002318460837BD4680BD00BFAA
:1018DC0010E000E080B582B000AF78607868FFF768
:1018EC002DFF00BF0837BD4680BD80B586B000AF68
:1018FC000346B9607A60FB7300237B61FFF742FFFC
:10190C0078617A68B9687869FFF790FF024697F9B1
:10191C000F3011461846FFF75FFF00BF1837BD4662
:10192C0080BD80B582B000AF0346FB7197F90730DC
:10193C001846FFF735FF00BF0837BD4680BD80B5A0
:10194C0082B000AF78607868FFF7A2FF03461846B4
:10195C000837BD4680BD000080B48BB000AF786006
:10196C00396000237B6200233B6248E101227B6AE1
:10197C0002FA03F3FB613B681B68FA691340BB6115
:10198C00BA69FB699A4240F037813B685B68A34AAD
:10199C0093425ED0A14A934275D8A14A934258D043
:1019AC009F4A93426FD89F4A934252D09D4A93428A
:1019BC0069D89D4A93424CD09B4A934263D89B4A28
:1019CC00934246D0994A93425DD8122B2AD8122BB7
:1019DC0059D801A252F823F05F1A0008391A0008EE
:1019EC004B1A00088D1A0008931A0008931A000865
:1019FC00931A0008931A0008931A0008931A000807
:101A0C00931A0008931A0008931A0008931A0008F6
:101A1C00931A0008931A0008931A0008411A000838
:101A2C00551A0008824A934213D02CE03B68DB68BD
:101A3C003B6229E03B68DB6804333B6224E03B6893
:101A4C00DB6808333B621FE03B68DB680C333B62AE
:101A5C001AE03B689B68002B02D104233B6213E025
:101A6C003B689B68012B05D108233B627B68FA69B4
:101A7C001A6109E008233B627B68FA695A6103E04A
:101A8C0000233B6200E000BFBB69FF2B01D87B68E1
:101A9C0001E07B6804337B61BB69FF2B02D87B6A56
:101AAC009B0002E07B6A083B9B003B617B691A68E8
:101ABC000F213B6901FA03F3DB431A40396A3B6996
:101ACC0001FA03F31A437B691A603B685B6803F005
:101ADC008053002B00F09080564B9B69554A43F085
:101AEC0001039361534B9B6903F00103BB60BB681B
:101AFC00514A7B6A9B08023352F82330FB607B6AA5
:101B0C0003F003039B000F2202FA03F3DB43FA6892
:101B1C001340FB607B68494A93420DD07B68484A6E
:101B2C00934207D07B68474A934201D1022304E0D9
:101B3C00032302E0012300E000237A6A02F003028F
:101B4C0092009340FA681343FB603B497B6A9B0805
:101B5C000233FA6841F823203B685B6803F4801376
:101B6C00002B06D0384B9A683749BB6913438B60FE
:101B7C0006E0354B9A68BB69DB43334913408B60F5
:101B8C003B685B6803F40013002B06D02E4BDA681D
:101B9C002D49BB691343CB6006E02B4BDA68BB695C
:101BAC00DB4329491340CB603B685B6803F400338B
:101BBC00002B06D0244B5A682349BB6913434B6056
:101BCC0006E0214B5A68BB69DB431F4913404B604D
:101BDC003B685B6803F48033002B06D01A4B1A6801
:101BEC001949BB6913430B6006E0174B1A68BB69B4
:101BFC00DB43154913400B607B6A01337B623B6806
:101C0C001A687B6A22FA03F3002B7FF4AFAE00BF95
:101C1C0000BF2C37BD4680BC704700BF000032109F
:101C2C0000003110000022100000211000001210E2
:101C3C00000011100010024000000140000801409B
:101C4C00000C0140001001400004014080B485B03C
:101C5C0000AF78600B467B807B689A687B8813406A
:101C6C00002B02D00123FB7301E00023FB73FB7BF1
:101C7C0018461437BD4680BC704780B483B000AFA3
:101C8C0078600B467B8013467B707B78002B03D0EF
:101C9C007A887B681A6103E07B881A047B681A6176
:101CAC0000BF0C37BD4680BC704780B485B000AF18
:101CBC0078600B467B807B68DB68FB607A88FB680E
:101CCC0013401A04FB68D9437B880B401A437B688A
:101CDC001A6100BF1437BD4680BC704780B586B012
:101CEC0000AF78607B68002B01D101236CE27B682C
:101CFC001B6803F00103002B00F08780924B5B689C
:101D0C0003F00C03042B0CD08F4B5B6803F00C031B
:101D1C00082B12D18C4B5B6803F48033B3F5803FF6
:101D2C000BD1894B1B6803F40033002B6CD07B6800
:101D3C005B68002B68D1012346E27B685B68B3F5D6
:101D4C00803F06D1804B1B687F4A43F4803313607D
:101D5C002EE07B685B68002B0CD17B4B1B687A4AAE
:101D6C0023F480331360784B1B68774A23F4802369
:101D7C0013601DE07B685B68B3F5A02F0CD1724B30
:101D8C001B68714A43F4802313606F4B1B686E4AC7
:101D9C0043F4803313600BE06B4B1B686A4A23F4EB
:101DAC0080331360684B1B68674A23F480231360ED
:101DBC007B685B68002B13D0FFF7B6FC386108E03A
:101DCC00FFF7B2FC02463B69D31A642B01D90323FB
:101DDC00FAE15D4B1B6803F40033002BF0D014E0E8
:101DEC00FFF7A2FC386108E0FFF79EFC02463B6956
:101DFC00D31A642B01D90323E6E1534B1B6803F47C
:101E0C000033002BF0D100E000BF7B681B6803F0AF
:101E1C000203002B63D04C4B5B6803F00C03002BCC
:101E2C000BD0494B5B6803F00C03082B1CD1464BC1
:101E3C005B6803F48033002B16D1434B1B6803F013
:101E4C000203002B05D07B681B69012B01D00123F9
:101E5C00BAE13D4B1B6823F0F8027B685B69DB0041
:101E6C00394913430B603AE07B681B69002B20D087
:101E7C00364B01221A60FFF757FC386108E0FFF778
:101E8C0053FC02463B69D31A022B01D903239BE175
:101E9C002D4B1B6803F00203002BF0D02A4B1B6860
:101EAC0023F0F8027B685B69DB00274913430B6066
:101EBC0015E0264B00221A60FFF736FC386108E06B
:101ECC00FFF732FC02463B69D31A022B01D90323DC
:101EDC007AE11D4B1B6803F00203002BF0D17B68E9
:101EEC001B6803F00803002B3AD07B689B69002B1E
:101EFC0019D0174B01221A60FFF716FC386108E065
:101F0C00FFF712FC02463B69D31A022B01D90323BB
:101F1C005AE10D4B5B6A03F00203002BF0D0012059
:101F2C0000F09AFA1CE00A4B00221A60FFF7FCFB47
:101F3C0038610FE0FFF7F8FB02463B69D31A022B1E
:101F4C0008D9032340E100BF0010024000004242C8
:101F5C00800442429E4B5B6A03F00203002BE9D1E2
:101F6C007B681B6803F00403002B00F0A6800023A1
:101F7C00FB75974BDB6903F08053002B0DD1944B11
:101F8C00DB69934A43F08053D361914BDB6903F0D7
:101F9C008053BB60BB680123FB758E4B1B6803F43D
:101FAC008073002B18D18B4B1B688A4A43F48073C7
:101FBC001360FFF7B9FB386108E0FFF7B5FB024689
:101FCC003B69D31A642B01D90323FDE0814B1B68B9
:101FDC0003F48073002BF0D07B68DB68012B06D1F7
:101FEC007B4B1B6A7A4A43F0010313622DE07B683A
:101FFC00DB68002B0CD1764B1B6A754A23F001036E
:10200C001362734B1B6A724A23F0040313621CE0C5
:10201C007B68DB68052B0CD16D4B1B6A6C4A43F05B
:10202C00040313626A4B1B6A694A43F0010313628F
:10203C000BE0674B1B6A664A23F001031362644B87
:10204C001B6A634A23F0040313627B68DB68002B72
:10205C0015D0FFF769FB38610AE0FFF765FB024614
:10206C003B69D31A41F28832934201D90323ABE086
:10207C00574B1B6A03F00203002BEED014E0FFF762
:10208C0053FB38610AE0FFF74FFB02463B69D31A5A
:10209C0041F28832934201D9032395E04C4B1B6AE1
:1020AC0003F00203002BEED1FB7D012B05D1484B35
:1020BC00DB69474A23F08053D3617B68DB69002BD3
:1020CC0000F08180424B5B6803F00C03082B61D05D
:1020DC007B68DB69022B46D13F4B00221A60FFF76D
:1020EC0023FB386108E0FFF71FFB02463B69D31A5C
:1020FC00022B01D9032367E0354B1B6803F00073F7
:10210C00002BF0D17B681B6AB3F5803F08D1304BB4
:10211C005B6823F400327B689B682D4913434B604A
:10212C002B4B5B6823F474127B68196A7B685B6ABF
:10213C000B43274913434B60274B01221A60FFF7CF
:10214C00F3FA386108E0FFF7EFFA02463B69D31A5D
:10215C00022B01D9032337E01D4B1B6803F00073DE
:10216C00002BF0D02FE01C4B00221A60FFF7DCFA9A
:10217C00386108E0FFF7D8FA02463B69D31A022B04
:10218C0001D9032320E0124B1B6803F00073002BD2
:10219C00F0D118E07B68DB69012B01D1012313E03E
:1021AC000B4B5B68FB60FB6803F480327B681B6A3B
:1021BC009A4206D1FB6803F470127B685B6A9A4200
:1021CC0001D0012300E0002318461837BD4680BD1E
:1021DC0000100240007000406000424280B584B0A4
:1021EC0000AF786039607B68002B01D10123D0E00F
:1021FC006A4B1B6803F007033A689A4210D9674B85
:10220C001B6823F0070265493B6813430B60634B63
:10221C001B6803F007033A689A4201D00123B8E027
:10222C007B681B6803F00203002B20D07B681B68C3
:10223C0003F00403002B05D0594B5B68584A43F458
:10224C00E06353607B681B6803F00803002B05D028
:10225C00534B5B68524A43F460535360504B5B687A
:10226C0023F0F0027B689B684D4913434B607B68FD
:10227C001B6803F00103002B40D07B685B68012BCB
:10228C0007D1474B1B6803F40033002B15D10123F6
:10229C007FE07B685B68022B07D1414B1B6803F026
:1022AC000073002B09D1012373E03D4B1B6803F035
:1022BC000203002B01D101236BE0394B5B6823F047
:1022CC0003027B685B68364913434B60FFF72CFABB
:1022DC00F8600AE0FFF728FA0246FB68D31A41F2CD
:1022EC008832934201D9032353E02D4B5B6803F0F2
:1022FC000C027B685B689B009A42EBD1274B1B68F6
:10230C0003F007033A689A4210D2244B1B6823F05F
:10231C00070222493B6813430B60204B1B6803F0F8
:10232C0007033A689A4201D0012332E07B681B68AC
:10233C0003F00403002B08D0194B5B6823F4E06214
:10234C007B68DB68164913434B607B681B6803F0A2
:10235C000803002B09D0124B5B6823F460527B6896
:10236C001B69DB000E4913434B6000F021F8024659
:10237C000B4B5B681B0903F00F030A49CB5C22FA79
:10238C0003F3094A1360094B1B681846FFF78AF9D7
:10239C00002318461037BD4680BD00BF0020024008
:1023AC0000100240E02C0008300000203400002017
:1023BC0080B487B000AF0023FB600023BB60002318
:1023CC007B6100237B6000233B611E4B5B68FB60E1
:1023DC00FB6803F00C03042B02D0082B03D027E07E
:1023EC00194B3B6127E0FB689B0C03F00F03174A6A
:1023FC00D35C7B60FB6803F48033002B10D0114B53
:10240C005B685B0C03F00103114AD35CBB607B6817
:10241C000D4A02FB03F2BB68B2FBF3F37B6104E0F1
:10242C007B680C4A02FB03F37B617B693B6102E036
:10243C00054B3B6100BF3B6918461C37BD4680BC51
:10244C00704700BF0010024000127A00F02C000808
:10245C00002D000800093D0080B485B000AF786005
:10246C000A4B1B680A4AA2FB03235B0A7A6802FB2D
:10247C0003F3FB6000BFFB685A1EFA60002BF9D116
:10248C0000BF00BF1437BD4680BC70473000002031
:10249C00D34D621080B582B000AF78607B68002BA2
:1024AC0001D1012341E07B6893F83D30DBB2002B76
:1024BC0006D17B68002283F83C207868FEF7E2FFA7
:1024CC007B68022283F83D207B681A687B680433A2
:1024DC001946104600F06EFA7B68012283F84620FC
:1024EC007B68012283F83E207B68012283F83F2021
:1024FC007B68012283F840207B68012283F841200D
:10250C007B68012283F842207B68012283F84320F8
:10251C007B68012283F844207B68012283F84520E4
:10252C007B68012283F83D20002318460837BD46FE
:10253C0080BD000080B485B000AF78607B6893F8F4
:10254C003D30DBB2012B01D0012335E07B68022248
:10255C0083F83D207B681B68DA687B681B6842F057
:10256C000102DA607B681B68164A934209D07B68CB
:10257C001B68B3F1804F04D07B681B68124A9342EE
:10258C0011D17B681B689B6803F00703FB60FB6839
:10259C00062B10D07B681B681A687B681B6842F09E
:1025AC0001021A6007E07B681B681A687B681B686D
:1025BC0042F001021A60002318461437BD4680BC55
:1025CC00704700BF002C01400004004080B582B071
:1025DC0000AF78607B681B681B6903F00203022B59
:1025EC0022D17B681B68DB6803F00203022B1BD132
:1025FC007B681B686FF002021A617B6801221A77F4
:10260C007B681B689B6903F00303002B03D078687D
:10261C0000F0B4F905E0786800F0A7F9786800F0EC
:10262C00B6F97B6800221A777B681B681B6903F07C
:10263C000403042B22D17B681B68DB6803F00403C2
:10264C00042B1BD17B681B686FF004021A617B683A
:10265C0002221A777B681B689B6903F44073002B7A
:10266C0003D0786800F08AF905E0786800F07DF90D
:10267C00786800F08CF97B6800221A777B681B68FD
:10268C001B6903F00803082B22D17B681B68DB68ED
:10269C0003F00803082B1BD17B681B686FF0080242
:1026AC001A617B6804221A777B681B68DB6903F06C
:1026BC000303002B03D0786800F060F905E078681C
:1026CC0000F053F9786800F062F97B6800221A7701
:1026DC007B681B681B6903F01003102B22D17B68ED
:1026EC001B68DB6803F01003102B1BD17B681B6885
:1026FC006FF010021A617B6808221A777B681B68DE
:10270C00DB6903F44073002B03D0786800F036F9D2
:10271C0005E0786800F029F9786800F038F97B68F2
:10272C0000221A777B681B681B6903F00103012BDD
:10273C000ED17B681B68DB6803F00103012B07D10A
:10274C007B681B686FF001021A617868FEF756FE11
:10275C007B681B681B6903F08003802B0ED17B68A0
:10276C001B68DB6803F08003802B07D17B681B6838
:10277C006FF080021A61786800F06BFA7B681B6856
:10278C001B6903F04003402B0ED17B681B68DB6890
:10279C0003F04003402B07D17B681B686FF04002AD
:1027AC001A61786800F0FCF87B681B681B6903F001
:1027BC002003202B0ED17B681B68DB6803F0200301
:1027CC00202B07D17B681B686FF020021A61786898
:1027DC0000F036FA00BF0837BD4680BD80B584B026
:1027EC0000AF786039600023FB737B6893F83C3052
:1027FC00012B01D10223B4E07B68012283F83C2039
:10280C007B68022283F83D207B681B689B68BB6059
:10281C00BB6823F07703BB60BB6823F47F43BB60CA
:10282C007B681B68BA689A603B681B68B3F5005FED
:10283C003ED0B3F5005F00F28780B3F5805F00F007
:10284C008680B3F5805F7FD8702B1AD0702B7BD825
:10285C00602B50D0602B77D8502B3CD0502B73D89A
:10286C00402B58D0402B6FD8302B64D0302B6BD8EA
:10287C00202B60D0202B67D8002B5CD0102B5AD08B
:10288C0062E07B6818683B6899683B685A683B68EB
:10289C00DB6800F05EF97B681B689B68BB60BB68FB
:1028AC0043F07703BB607B681B68BA689A604FE0A3
:1028BC007B6818683B6899683B685A683B68DB68BA
:1028CC0000F047F97B681B689A687B681B6842F4C8
:1028DC0080429A603CE07B6818683B6859683B68AA
:1028EC00DB681A4600F0BEF87B681B68502118465E
:1028FC0000F015F92CE07B6818683B6859683B6858
:10290C00DB681A4600F0DCF87B681B68602118460F
:10291C0000F005F91CE07B6818683B6859683B6857
:10292C00DB681A4600F09EF87B681B68402118464D
:10293C0000F0F5F80CE07B681A683B681B681946D8
:10294C00104600F0ECF803E00123FB7300E000BF3D
:10295C007B68012283F83D207B68002283F83C20B1
:10296C00FB7B18461037BD4680BD80B483B000AFEA
:10297C00786000BF0C37BD4680BC704780B483B014
:10298C0000AF786000BF0C37BD4680BC704780B488
:10299C0083B000AF786000BF0C37BD4680BC704779
:1029AC0080B483B000AF786000BF0C37BD4680BCEC
:1029BC007047000080B485B000AF786039607B68E8
:1029CC001B68FB607B68254A934207D07B68B3F198
:1029DC00804F03D07B68224A934208D1FB6823F0D6
:1029EC007003FB603B685B68FA681343FB607B68B1
:1029FC001A4A934207D07B68B3F1804F03D07B68AF
:102A0C00174A934208D1FB6823F44073FB603B6880
:102A1C00DB68FA681343FB60FB6823F080023B68B9
:102A2C005B691343FB607B68FA681A603B689A68C1
:102A3C007B68DA623B681A687B689A627B68074A33
:102A4C00934203D13B681A697B681A637B68012245
:102A5C005A6100BF1437BD4680BC7047002C014042
:102A6C000004004080B487B000AFF860B9607A60B1
:102A7C00FB681B6A7B61FB681B6A23F00102FB6825
:102A8C001A62FB689B693B613B6923F0F0033B6175
:102A9C007B681B013A6913433B617B6923F00A0392
:102AAC007B617A69BB6813437B61FB683A699A6105
:102ABC00FB687A691A6200BF1C37BD4680BC704740
:102ACC0080B487B000AFF860B9607A60FB681B6AAD
:102ADC007B61FB681B6A23F01002FB681A62FB68BF
:102AEC009B693B613B6923F470433B617B681B032F
:102AFC003A6913433B617B6923F0A0037B61BB689C
:102B0C001B017A6913437B61FB683A699A61FB6824
:102B1C007A691A6200BF1C37BD4680BC704780B40E
:102B2C0085B000AF786039607B689B68FB60FB68A0
:102B3C0023F07003FB603A68FB68134343F0070310
:102B4C00FB607B68FA689A6000BF1437BD4680BC96
:102B5C00704780B487B000AFF860B9607A603B60B2
:102B6C00FB689B687B617B6923F47F437B613B68DB
:102B7C001A027B681A43BB6813437A6913437B615F
:102B8C00FB687A699A6000BF1C37BD4680BC7047F1
:102B9C0080B485B000AF786039607B6893F83C30C6
:102BAC00012B01D1022341E07B68012283F83C20F8
:102BBC007B68022283F83D207B681B685B68FB60A6
:102BCC007B681B689B68BB60FB6823F07003FB6031
:102BDC003B681B68FA681343FB607B681B68FA68E8
:102BEC005A607B681B68144A934209D07B681B6847
:102BFC00B3F1804F04D07B681B68104A93420CD110
:102C0C00BB6823F08003BB603B685B68BA68134306
:102C1C00BB607B681B68BA689A607B68012283F88A
:102C2C003D207B68002283F83C2000231846143793
:102C3C00BD4680BC704700BF002C01400004004022
:102C4C0080B483B000AF786000BF0C37BD4680BC49
:102C5C00704780B483B000AF786000BF0C37BD46BE
:102C6C0080BC704770B500260C4D0D4C641BA41035
:102C7C00A64209D100F022F800260A4D0A4C641B2A
:102C8C00A410A64205D170BD55F8043B98470136F7
:102C9C00EEE755F8043B98470136F2E7042D00089F
:102CAC00042D0008042D0008082D000803460244DA
:102CBC00934200D1704703F8011BF9E7F8B500BF48
:102CCC00F8BC08BC9E467047F8B500BFF8BC08BC01
:042CDC009E46704759
:102CE00000000000000000000102030406070809BC
:102CF00002030405060708090A0B0C0D0E0F10103D
:042D000001020000CC
:042D04003101000891
:042D08000D010008B1
:102D0C0001000000000000000000000001000000B5
:102D1C0000000000000000000100000000000000A6
:102D2C000000000001000000000000000000000096
:0C2D3C000024F400100000000100000062
:0400000508001639A0
:00000001FF
